{
    "contractName": "SimpleStorage",
    "abi": [
        {
            "inputs": [
                {
                    "internalType": "uint256",
                    "name": "_number1",
                    "type": "uint256"
                },
                {
                    "internalType": "uint256",
                    "name": "_number2",
                    "type": "uint256"
                }
            ],
            "name": "addition",
            "outputs": [],
            "stateMutability": "nonpayable",
            "type": "function"
        },
        {
            "inputs": [
                {
                    "internalType": "uint256",
                    "name": "_number1",
                    "type": "uint256"
                },
                {
                    "internalType": "uint256",
                    "name": "_number2",
                    "type": "uint256"
                }
            ],
            "name": "division",
            "outputs": [],
            "stateMutability": "nonpayable",
            "type": "function"
        },
        {
            "inputs": [
                {
                    "internalType": "uint256",
                    "name": "_number1",
                    "type": "uint256"
                },
                {
                    "internalType": "uint256",
                    "name": "_number2",
                    "type": "uint256"
                }
            ],
            "name": "multiplication",
            "outputs": [],
            "stateMutability": "nonpayable",
            "type": "function"
        },
        {
            "inputs": [
                {
                    "internalType": "uint256",
                    "name": "_number1",
                    "type": "uint256"
                },
                {
                    "internalType": "uint256",
                    "name": "_number2",
                    "type": "uint256"
                }
            ],
            "name": "subtraction",
            "outputs": [],
            "stateMutability": "nonpayable",
            "type": "function"
        },
        {
            "inputs": [],
            "name": "viewAdditionResult",
            "outputs": [
                {
                    "internalType": "uint256",
                    "name": "",
                    "type": "uint256"
                }
            ],
            "stateMutability": "view",
            "type": "function"
        },
        {
            "inputs": [],
            "name": "viewDivisionResult",
            "outputs": [
                {
                    "internalType": "uint256",
                    "name": "",
                    "type": "uint256"
                }
            ],
            "stateMutability": "view",
            "type": "function"
        },
        {
            "inputs": [],
            "name": "viewMultiplicationResult",
            "outputs": [
                {
                    "internalType": "uint256",
                    "name": "",
                    "type": "uint256"
                }
            ],
            "stateMutability": "view",
            "type": "function"
        },
        {
            "inputs": [],
            "name": "viewSubtractionResult",
            "outputs": [
                {
                    "internalType": "uint256",
                    "name": "",
                    "type": "uint256"
                }
            ],
            "stateMutability": "view",
            "type": "function"
        }
    ],
    "bytecode": "608060405234801561001057600080fd5b50610220806100206000396000f3fe608060405234801561001057600080fd5b50600436106100885760003560e01c806354f363a31161005b57806354f363a3146100bb578063900683d0146100d0578063bbe562b0146100e3578063e0068052146100f657600080fd5b8063060524f11461008d5780630a627a98146100a35780631d5789b2146100ab57806341a8ed83146100b3575b600080fd5b6001545b60405190815260200160405180910390f35b600054610091565b600354610091565b600254610091565b6100ce6100c936600461014d565b610109565b005b6100ce6100de36600461014d565b61011a565b6100ce6100f136600461014d565b61012b565b6100ce61010436600461014d565b61013c565b6101138183610185565b6000555050565b610124818361019e565b6001555050565b61013581836101b1565b6002555050565b61014681836101c8565b6003555050565b6000806040838503121561016057600080fd5b50508035926020909101359150565b634e487b7160e01b600052601160045260246000fd5b808201808211156101985761019861016f565b92915050565b818103818111156101985761019861016f565b80820281158282048414176101985761019861016f565b6000826101e557634e487b7160e01b600052601260045260246000fd5b50049056fea2646970667358221220fdc665dd23e521b231a7e278a94b0b9cd6f9c20cfa4ca8f5f7722b12c20c5c5464736f6c63430008130033",
    "sourcePath": "c:/Users/Marbert Mataverde/projects/learn/solidity/my_first_contract.sol",
    "compiler": {
        "name": "solc",
        "version": "0.8.19+commit.7dd6d404"
    },
    "functionHashes": {
        "addition(uint256,uint256)": "54f363a3",
        "division(uint256,uint256)": "e0068052",
        "multiplication(uint256,uint256)": "bbe562b0",
        "subtraction(uint256,uint256)": "900683d0",
        "viewAdditionResult()": "0a627a98",
        "viewDivisionResult()": "1d5789b2",
        "viewMultiplicationResult()": "41a8ed83",
        "viewSubtractionResult()": "060524f1"
    },
    "gasEstimates": {
        "creation": {
            "codeDepositCost": "108800",
            "executionCost": "153",
            "totalCost": "108953"
        },
        "external": {
            "addition(uint256,uint256)": "22426",
            "division(uint256,uint256)": "22477",
            "multiplication(uint256,uint256)": "22486",
            "subtraction(uint256,uint256)": "22448",
            "viewAdditionResult()": "2303",
            "viewDivisionResult()": "2325",
            "viewMultiplicationResult()": "2347",
            "viewSubtractionResult()": "2270"
        }
    }
}